{
  "contractName": "Fleetmanager",
  "abi": [
    {
      "inputs": [
        {
          "internalType": "address",
          "name": "vehiclesAddress",
          "type": "address"
        }
      ],
      "stateMutability": "nonpayable",
      "type": "constructor"
    },
    {
      "inputs": [],
      "name": "getAllDiagnostics",
      "outputs": [
        {
          "components": [
            {
              "internalType": "uint256",
              "name": "vehicle_id",
              "type": "uint256"
            },
            {
              "internalType": "uint256",
              "name": "driver_id",
              "type": "uint256"
            },
            {
              "internalType": "string",
              "name": "diagnostic",
              "type": "string"
            },
            {
              "internalType": "uint256",
              "name": "timestamp",
              "type": "uint256"
            },
            {
              "internalType": "bool",
              "name": "initialized",
              "type": "bool"
            }
          ],
          "internalType": "struct Vehicles.Diagnostic[]",
          "name": "",
          "type": "tuple[]"
        }
      ],
      "stateMutability": "view",
      "type": "function"
    },
    {
      "inputs": [
        {
          "internalType": "uint256",
          "name": "vehicle_id",
          "type": "uint256"
        }
      ],
      "name": "getLatestCarDiagnostic",
      "outputs": [
        {
          "components": [
            {
              "internalType": "uint256",
              "name": "vehicle_id",
              "type": "uint256"
            },
            {
              "internalType": "uint256",
              "name": "driver_id",
              "type": "uint256"
            },
            {
              "internalType": "string",
              "name": "diagnostic",
              "type": "string"
            },
            {
              "internalType": "uint256",
              "name": "timestamp",
              "type": "uint256"
            },
            {
              "internalType": "bool",
              "name": "initialized",
              "type": "bool"
            }
          ],
          "internalType": "struct Vehicles.Diagnostic",
          "name": "",
          "type": "tuple"
        }
      ],
      "stateMutability": "view",
      "type": "function"
    },
    {
      "inputs": [
        {
          "internalType": "uint256",
          "name": "vehicle_id",
          "type": "uint256"
        }
      ],
      "name": "getLatestCarTelemetry",
      "outputs": [
        {
          "components": [
            {
              "internalType": "uint256",
              "name": "vehicle_id",
              "type": "uint256"
            },
            {
              "internalType": "uint256",
              "name": "driver_id",
              "type": "uint256"
            },
            {
              "internalType": "uint256",
              "name": "timestamp",
              "type": "uint256"
            },
            {
              "internalType": "uint256",
              "name": "avg_engine_load",
              "type": "uint256"
            },
            {
              "internalType": "uint256",
              "name": "avg_engine_rpm",
              "type": "uint256"
            },
            {
              "internalType": "int256",
              "name": "coolant_temp",
              "type": "int256"
            },
            {
              "internalType": "uint256",
              "name": "sys_voltage",
              "type": "uint256"
            },
            {
              "internalType": "uint256",
              "name": "fuel_rate",
              "type": "uint256"
            },
            {
              "internalType": "int256",
              "name": "ambient_temp",
              "type": "int256"
            },
            {
              "internalType": "uint256",
              "name": "mileage",
              "type": "uint256"
            },
            {
              "internalType": "bool",
              "name": "initialized",
              "type": "bool"
            }
          ],
          "internalType": "struct Vehicles.Telemetry",
          "name": "",
          "type": "tuple"
        }
      ],
      "stateMutability": "view",
      "type": "function"
    },
    {
      "inputs": [],
      "name": "getLatestFleetTelemetry",
      "outputs": [
        {
          "components": [
            {
              "internalType": "uint256",
              "name": "vehicle_id",
              "type": "uint256"
            },
            {
              "internalType": "uint256",
              "name": "driver_id",
              "type": "uint256"
            },
            {
              "internalType": "uint256",
              "name": "timestamp",
              "type": "uint256"
            },
            {
              "internalType": "uint256",
              "name": "avg_engine_load",
              "type": "uint256"
            },
            {
              "internalType": "uint256",
              "name": "avg_engine_rpm",
              "type": "uint256"
            },
            {
              "internalType": "int256",
              "name": "coolant_temp",
              "type": "int256"
            },
            {
              "internalType": "uint256",
              "name": "sys_voltage",
              "type": "uint256"
            },
            {
              "internalType": "uint256",
              "name": "fuel_rate",
              "type": "uint256"
            },
            {
              "internalType": "int256",
              "name": "ambient_temp",
              "type": "int256"
            },
            {
              "internalType": "uint256",
              "name": "mileage",
              "type": "uint256"
            },
            {
              "internalType": "bool",
              "name": "initialized",
              "type": "bool"
            }
          ],
          "internalType": "struct Vehicles.Telemetry[]",
          "name": "",
          "type": "tuple[]"
        }
      ],
      "stateMutability": "view",
      "type": "function"
    },
    {
      "inputs": [
        {
          "internalType": "uint256",
          "name": "vehicle_id",
          "type": "uint256"
        },
        {
          "internalType": "uint256",
          "name": "driver_id",
          "type": "uint256"
        },
        {
          "internalType": "string",
          "name": "diagnostic",
          "type": "string"
        },
        {
          "internalType": "uint256",
          "name": "timestamp",
          "type": "uint256"
        }
      ],
      "name": "recordDiagnostic",
      "outputs": [],
      "stateMutability": "nonpayable",
      "type": "function"
    },
    {
      "inputs": [
        {
          "internalType": "uint256",
          "name": "vehicle_id",
          "type": "uint256"
        },
        {
          "internalType": "uint256",
          "name": "driver_id",
          "type": "uint256"
        },
        {
          "internalType": "uint256",
          "name": "timestamp",
          "type": "uint256"
        },
        {
          "internalType": "uint256",
          "name": "avg_engine_load",
          "type": "uint256"
        },
        {
          "internalType": "uint256",
          "name": "avg_engine_rpm",
          "type": "uint256"
        },
        {
          "internalType": "int256",
          "name": "coolant_temp",
          "type": "int256"
        },
        {
          "internalType": "uint256",
          "name": "sys_voltage",
          "type": "uint256"
        },
        {
          "internalType": "uint256",
          "name": "fuel_rate",
          "type": "uint256"
        },
        {
          "internalType": "int256",
          "name": "ambient_temp",
          "type": "int256"
        },
        {
          "internalType": "uint256",
          "name": "mileage",
          "type": "uint256"
        }
      ],
      "name": "recordTelemetry",
      "outputs": [],
      "stateMutability": "nonpayable",
      "type": "function"
    },
    {
      "inputs": [],
      "name": "getLatestFleetStatus",
      "outputs": [
        {
          "components": [
            {
              "internalType": "uint256",
              "name": "vehicle_id",
              "type": "uint256"
            },
            {
              "internalType": "uint256",
              "name": "driver_id",
              "type": "uint256"
            },
            {
              "internalType": "uint256",
              "name": "timestamp",
              "type": "uint256"
            },
            {
              "internalType": "uint256",
              "name": "avg_engine_load",
              "type": "uint256"
            },
            {
              "internalType": "uint256",
              "name": "avg_engine_rpm",
              "type": "uint256"
            },
            {
              "internalType": "int256",
              "name": "coolant_temp",
              "type": "int256"
            },
            {
              "internalType": "uint256",
              "name": "sys_voltage",
              "type": "uint256"
            },
            {
              "internalType": "uint256",
              "name": "fuel_rate",
              "type": "uint256"
            },
            {
              "internalType": "int256",
              "name": "ambient_temp",
              "type": "int256"
            },
            {
              "internalType": "uint256",
              "name": "mileage",
              "type": "uint256"
            },
            {
              "internalType": "bool",
              "name": "initialized",
              "type": "bool"
            }
          ],
          "internalType": "struct Vehicles.Telemetry[]",
          "name": "",
          "type": "tuple[]"
        }
      ],
      "stateMutability": "view",
      "type": "function"
    },
    {
      "inputs": [
        {
          "internalType": "uint256",
          "name": "driver_id",
          "type": "uint256"
        }
      ],
      "name": "getDiagnosticsByDriver",
      "outputs": [
        {
          "components": [
            {
              "internalType": "uint256",
              "name": "vehicle_id",
              "type": "uint256"
            },
            {
              "internalType": "uint256",
              "name": "driver_id",
              "type": "uint256"
            },
            {
              "internalType": "string",
              "name": "diagnostic",
              "type": "string"
            },
            {
              "internalType": "uint256",
              "name": "timestamp",
              "type": "uint256"
            },
            {
              "internalType": "bool",
              "name": "initialized",
              "type": "bool"
            }
          ],
          "internalType": "struct Vehicles.Diagnostic[]",
          "name": "",
          "type": "tuple[]"
        }
      ],
      "stateMutability": "view",
      "type": "function"
    }
  ],
  "bytecode": "0x60806040523480156200001157600080fd5b5060405162001bea38038062001bea8339818101604052810190620000379190620000e9565b80600560006101000a81548173ffffffffffffffffffffffffffffffffffffffff021916908373ffffffffffffffffffffffffffffffffffffffff160217905550506200011b565b600080fd5b600073ffffffffffffffffffffffffffffffffffffffff82169050919050565b6000620000b18262000084565b9050919050565b620000c381620000a4565b8114620000cf57600080fd5b50565b600081519050620000e381620000b8565b92915050565b6000602082840312156200010257620001016200007f565b5b60006200011284828501620000d2565b91505092915050565b611abf806200012b6000396000f3fe608060405234801561001057600080fd5b50600436106100885760003560e01c80637f7762261161005b5780637f776226146101155780639d2e190114610133578063c1c917d814610163578063eb3c5a1f1461019357610088565b806325b50c311461008d5780632b2d6ecc146100bd5780635b6f114f146100db57806370419cc8146100f7575b600080fd5b6100a760048036038101906100a29190610c54565b6101af565b6040516100b49190610e7c565b60405180910390f35b6100c56102d2565b6040516100d29190611048565b60405180910390f35b6100f560048036038101906100f09190611096565b6103e5565b005b6100ff6105d6565b60405161010c9190610e7c565b60405180910390f35b61011d610700565b60405161012a9190611048565b60405180910390f35b61014d60048036038101906101489190610c54565b61079d565b60405161015a91906111eb565b60405180910390f35b61017d60048036038101906101789190610c54565b610895565b60405161018a91906112ee565b60405180910390f35b6101ad60048036038101906101a8919061143f565b610942565b005b60606000600560009054906101000a900473ffffffffffffffffffffffffffffffffffffffff1673ffffffffffffffffffffffffffffffffffffffff166370419cc86040518163ffffffff1660e01b8152600401600060405180830381865afa158015610220573d6000803e3d6000fd5b505050506040513d6000823e3d601f19601f82011682018060405250810190610249919061170b565b905060606000805b83518110156102c657600084828151811061026f5761026e611754565b5b60200260200101519050868160200151036102b2578084848151811061029857610297611754565b5b602002602001018190525082806102ae906117b2565b9350505b5080806102be906117b2565b915050610251565b50819350505050919050565b60608060005b6000805490508110156103dd5760008082815481106102fa576102f9611754565b5b906000526020600020015490506000600260008381526020019081526020016000206040518061016001604052908160008201548152602001600182015481526020016002820154815260200160038201548152602001600482015481526020016005820154815260200160068201548152602001600782015481526020016008820154815260200160098201548152602001600a820160009054906101000a900460ff1615151515815250509050808484815181106103bd576103bc611754565b5b6020026020010181905250505080806103d5906117b2565b9150506102d8565b508091505090565b60006040518061016001604052808c81526020018b81526020018a815260200189815260200188815260200187815260200186815260200185815260200184815260200183815260200160011515815250905060018190806001815401808255809150506001900390600052602060002090600b0201600090919091909150600082015181600001556020820151816001015560408201518160020155606082015181600301556080820151816004015560a0820151816005015560c0820151816006015560e082015181600701556101008201518160080155610120820151816009015561014082015181600a0160006101000a81548160ff021916908315150217905550505080600260008d8152602001908152602001600020600082015181600001556020820151816001015560408201518160020155606082015181600301556080820151816004015560a0820151816005015560c0820151816006015560e082015181600701556101008201518160080155610120820151816009015561014082015181600a0160006101000a81548160ff021916908315150217905550905050600015156105988c610a72565b1515036105c95760008b90806001815401808255809150506001900390600052602060002001600090919091909150555b5050505050505050505050565b60606003805480602002602001604051908101604052809291908181526020016000905b828210156106f757838290600052602060002090600502016040518060a0016040529081600082015481526020016001820154815260200160028201805461064190611829565b80601f016020809104026020016040519081016040528092919081815260200182805461066d90611829565b80156106ba5780601f1061068f576101008083540402835291602001916106ba565b820191906000526020600020905b81548152906001019060200180831161069d57829003601f168201915b50505050508152602001600382015481526020016004820160009054906101000a900460ff161515151581525050815260200190600101906105fa565b50505050905090565b6060600560009054906101000a900473ffffffffffffffffffffffffffffffffffffffff1673ffffffffffffffffffffffffffffffffffffffff16632b2d6ecc6040518163ffffffff1660e01b8152600401600060405180830381865afa15801561076f573d6000803e3d6000fd5b505050506040513d6000823e3d601f19601f820116820180604052508101906107989190611a40565b905090565b6107a5610ada565b600460008381526020019081526020016000206040518060a001604052908160008201548152602001600182015481526020016002820180546107e790611829565b80601f016020809104026020016040519081016040528092919081815260200182805461081390611829565b80156108605780601f1061083557610100808354040283529160200191610860565b820191906000526020600020905b81548152906001019060200180831161084357829003601f168201915b50505050508152602001600382015481526020016004820160009054906101000a900460ff1615151515815250509050919050565b61089d610b0b565b600260008381526020019081526020016000206040518061016001604052908160008201548152602001600182015481526020016002820154815260200160038201548152602001600482015481526020016005820154815260200160068201548152602001600782015481526020016008820154815260200160098201548152602001600a820160009054906101000a900460ff1615151515815250509050919050565b60006040518060a001604052808681526020018581526020018481526020018381526020016001151581525090506003819080600181540180825580915050600190039060005260206000209060050201600090919091909150600082015181600001556020820151816001015560408201518160020190805190602001906109cc929190610b67565b506060820151816003015560808201518160040160006101000a81548160ff0219169083151502179055505050806004600087815260200190815260200160002060008201518160000155602082015181600101556040820151816002019080519060200190610a3d929190610b67565b506060820151816003015560808201518160040160006101000a81548160ff0219169083151502179055509050505050505050565b600080600090505b600080549050811015610acf576000808281548110610a9c57610a9b611754565b5b90600052602060002001549050838103610abb57600192505050610ad5565b508080610ac7906117b2565b915050610a7a565b50600090505b919050565b6040518060a00160405280600081526020016000815260200160608152602001600081526020016000151581525090565b604051806101600160405280600081526020016000815260200160008152602001600081526020016000815260200160008152602001600081526020016000815260200160008152602001600081526020016000151581525090565b828054610b7390611829565b90600052602060002090601f016020900481019282610b955760008555610bdc565b82601f10610bae57805160ff1916838001178555610bdc565b82800160010185558215610bdc579182015b82811115610bdb578251825591602001919060010190610bc0565b5b509050610be99190610bed565b5090565b5b80821115610c06576000816000905550600101610bee565b5090565b6000604051905090565b600080fd5b600080fd5b6000819050919050565b610c3181610c1e565b8114610c3c57600080fd5b50565b600081359050610c4e81610c28565b92915050565b600060208284031215610c6a57610c69610c14565b5b6000610c7884828501610c3f565b91505092915050565b600081519050919050565b600082825260208201905092915050565b6000819050602082019050919050565b610cb681610c1e565b82525050565b600081519050919050565b600082825260208201905092915050565b60005b83811015610cf6578082015181840152602081019050610cdb565b83811115610d05576000848401525b50505050565b6000601f19601f8301169050919050565b6000610d2782610cbc565b610d318185610cc7565b9350610d41818560208601610cd8565b610d4a81610d0b565b840191505092915050565b60008115159050919050565b610d6a81610d55565b82525050565b600060a083016000830151610d886000860182610cad565b506020830151610d9b6020860182610cad565b5060408301518482036040860152610db38282610d1c565b9150506060830151610dc86060860182610cad565b506080830151610ddb6080860182610d61565b508091505092915050565b6000610df28383610d70565b905092915050565b6000602082019050919050565b6000610e1282610c81565b610e1c8185610c8c565b935083602082028501610e2e85610c9d565b8060005b85811015610e6a5784840389528151610e4b8582610de6565b9450610e5683610dfa565b925060208a01995050600181019050610e32565b50829750879550505050505092915050565b60006020820190508181036000830152610e968184610e07565b905092915050565b600081519050919050565b600082825260208201905092915050565b6000819050602082019050919050565b6000819050919050565b610edd81610eca565b82525050565b61016082016000820151610efa6000850182610cad565b506020820151610f0d6020850182610cad565b506040820151610f206040850182610cad565b506060820151610f336060850182610cad565b506080820151610f466080850182610cad565b5060a0820151610f5960a0850182610ed4565b5060c0820151610f6c60c0850182610cad565b5060e0820151610f7f60e0850182610cad565b50610100820151610f94610100850182610ed4565b50610120820151610fa9610120850182610cad565b50610140820151610fbe610140850182610d61565b50505050565b6000610fd08383610ee3565b6101608301905092915050565b6000602082019050919050565b6000610ff582610e9e565b610fff8185610ea9565b935061100a83610eba565b8060005b8381101561103b5781516110228882610fc4565b975061102d83610fdd565b92505060018101905061100e565b5085935050505092915050565b600060208201905081810360008301526110628184610fea565b905092915050565b61107381610eca565b811461107e57600080fd5b50565b6000813590506110908161106a565b92915050565b6000806000806000806000806000806101408b8d0312156110ba576110b9610c14565b5b60006110c88d828e01610c3f565b9a505060206110d98d828e01610c3f565b99505060406110ea8d828e01610c3f565b98505060606110fb8d828e01610c3f565b975050608061110c8d828e01610c3f565b96505060a061111d8d828e01611081565b95505060c061112e8d828e01610c3f565b94505060e061113f8d828e01610c3f565b9350506101006111518d828e01611081565b9250506101206111638d828e01610c3f565b9150509295989b9194979a5092959850565b600060a08301600083015161118d6000860182610cad565b5060208301516111a06020860182610cad565b50604083015184820360408601526111b88282610d1c565b91505060608301516111cd6060860182610cad565b5060808301516111e06080860182610d61565b508091505092915050565b600060208201905081810360008301526112058184611175565b905092915050565b610160820160008201516112246000850182610cad565b5060208201516112376020850182610cad565b50604082015161124a6040850182610cad565b50606082015161125d6060850182610cad565b5060808201516112706080850182610cad565b5060a082015161128360a0850182610ed4565b5060c082015161129660c0850182610cad565b5060e08201516112a960e0850182610cad565b506101008201516112be610100850182610ed4565b506101208201516112d3610120850182610cad565b506101408201516112e8610140850182610d61565b50505050565b600061016082019050611304600083018461120d565b92915050565b600080fd5b600080fd5b7f4e487b7100000000000000000000000000000000000000000000000000000000600052604160045260246000fd5b61134c82610d0b565b810181811067ffffffffffffffff8211171561136b5761136a611314565b5b80604052505050565b600061137e610c0a565b905061138a8282611343565b919050565b600067ffffffffffffffff8211156113aa576113a9611314565b5b6113b382610d0b565b9050602081019050919050565b82818337600083830152505050565b60006113e26113dd8461138f565b611374565b9050828152602081018484840111156113fe576113fd61130f565b5b6114098482856113c0565b509392505050565b600082601f8301126114265761142561130a565b5b81356114368482602086016113cf565b91505092915050565b6000806000806080858703121561145957611458610c14565b5b600061146787828801610c3f565b945050602061147887828801610c3f565b935050604085013567ffffffffffffffff81111561149957611498610c19565b5b6114a587828801611411565b92505060606114b687828801610c3f565b91505092959194509250565b600067ffffffffffffffff8211156114dd576114dc611314565b5b602082029050602081019050919050565b600080fd5b600080fd5b600080fd5b60008151905061150c81610c28565b92915050565b60006115256115208461138f565b611374565b9050828152602081018484840111156115415761154061130f565b5b61154c848285610cd8565b509392505050565b600082601f8301126115695761156861130a565b5b8151611579848260208601611512565b91505092915050565b61158b81610d55565b811461159657600080fd5b50565b6000815190506115a881611582565b92915050565b600060a082840312156115c4576115c36114f3565b5b6115ce60a0611374565b905060006115de848285016114fd565b60008301525060206115f2848285016114fd565b602083015250604082015167ffffffffffffffff811115611616576116156114f8565b5b61162284828501611554565b6040830152506060611636848285016114fd565b606083015250608061164a84828501611599565b60808301525092915050565b6000611669611664846114c2565b611374565b9050808382526020820190506020840283018581111561168c5761168b6114ee565b5b835b818110156116d357805167ffffffffffffffff8111156116b1576116b061130a565b5b8086016116be89826115ae565b8552602085019450505060208101905061168e565b5050509392505050565b600082601f8301126116f2576116f161130a565b5b8151611702848260208601611656565b91505092915050565b60006020828403121561172157611720610c14565b5b600082015167ffffffffffffffff81111561173f5761173e610c19565b5b61174b848285016116dd565b91505092915050565b7f4e487b7100000000000000000000000000000000000000000000000000000000600052603260045260246000fd5b7f4e487b7100000000000000000000000000000000000000000000000000000000600052601160045260246000fd5b60006117bd82610c1e565b91507fffffffffffffffffffffffffffffffffffffffffffffffffffffffffffffffff82036117ef576117ee611783565b5b600182019050919050565b7f4e487b7100000000000000000000000000000000000000000000000000000000600052602260045260246000fd5b6000600282049050600182168061184157607f821691505b602082108103611854576118536117fa565b5b50919050565b600067ffffffffffffffff82111561187557611874611314565b5b602082029050602081019050919050565b6000815190506118958161106a565b92915050565b600061016082840312156118b2576118b16114f3565b5b6118bd610160611374565b905060006118cd848285016114fd565b60008301525060206118e1848285016114fd565b60208301525060406118f5848285016114fd565b6040830152506060611909848285016114fd565b606083015250608061191d848285016114fd565b60808301525060a061193184828501611886565b60a08301525060c0611945848285016114fd565b60c08301525060e0611959848285016114fd565b60e08301525061010061196e84828501611886565b61010083015250610120611984848285016114fd565b6101208301525061014061199a84828501611599565b6101408301525092915050565b60006119ba6119b58461185a565b611374565b90508083825260208201905061016084028301858111156119de576119dd6114ee565b5b835b81811015611a0857806119f3888261189b565b845260208401935050610160810190506119e0565b5050509392505050565b600082601f830112611a2757611a2661130a565b5b8151611a378482602086016119a7565b91505092915050565b600060208284031215611a5657611a55610c14565b5b600082015167ffffffffffffffff811115611a7457611a73610c19565b5b611a8084828501611a12565b9150509291505056fea26469706673582212206c05f8054bc84dce2246c50c4ba39308ba54f01c3d133e08eb50a80a423849f664736f6c634300080d0033",
  "immutableReferences": {},
  "source": "// SPDX-License-Identifier: GPL-3.0\r\n\r\npragma solidity >=0.8.13 <0.9.0;\r\n\r\nimport \"./Vehicles.sol\";\r\n\r\ncontract Fleetmanager is Vehicles {\r\n    Vehicles vehiclesContract;\r\n\r\n    constructor(address vehiclesAddress) {\r\n        vehiclesContract = Vehicles(vehiclesAddress);\r\n    }\r\n\r\n    function getLatestFleetStatus() public view returns (Telemetry[] memory){\r\n        return vehiclesContract.getLatestFleetTelemetry();\r\n    }\r\n\r\n    function getDiagnosticsByDriver(uint driver_id) public view returns (Diagnostic[] memory) {\r\n        Diagnostic[] memory allDiagnostics = vehiclesContract.getAllDiagnostics();\r\n        Diagnostic[] memory driverDiagnostics;\r\n        uint current_size = 0;\r\n        for (uint i = 0; i < allDiagnostics.length; i++) \r\n        {\r\n            Diagnostic memory diagnostic = allDiagnostics[i];\r\n            if (diagnostic.driver_id == driver_id) {\r\n                driverDiagnostics[current_size] = diagnostic;\r\n                current_size ++;\r\n            }\r\n        }\r\n        return driverDiagnostics;\r\n    }\r\n}",
  "sourcePath": "/home/testekeys/blockchain/ganache-project/contracts/Fleetmanager.sol",
  "compiler": {
    "name": "solc",
    "version": "0.8.13+commit.abaa5c0e.Emscripten.clang"
  },
  "schemaVersion": "3.4.16",
  "updatedAt": "2024-12-03T19:23:02.465Z",
  "devdoc": {
    "kind": "dev",
    "methods": {},
    "version": 1
  },
  "userdoc": {
    "kind": "user",
    "methods": {},
    "version": 1
  }
}