{
  "contractName": "Insurance",
  "abi": [
    {
      "inputs": [
        {
          "internalType": "address",
          "name": "vehiclesAddress",
          "type": "address"
        }
      ],
      "stateMutability": "nonpayable",
      "type": "constructor"
    },
    {
      "inputs": [],
      "name": "getAllDiagnostics",
      "outputs": [
        {
          "components": [
            {
              "internalType": "uint256",
              "name": "vehicle_id",
              "type": "uint256"
            },
            {
              "internalType": "uint256",
              "name": "driver_id",
              "type": "uint256"
            },
            {
              "internalType": "string",
              "name": "diagnostic",
              "type": "string"
            },
            {
              "internalType": "uint256",
              "name": "timestamp",
              "type": "uint256"
            },
            {
              "internalType": "bool",
              "name": "initialized",
              "type": "bool"
            }
          ],
          "internalType": "struct Vehicles.Diagnostic[]",
          "name": "",
          "type": "tuple[]"
        }
      ],
      "stateMutability": "view",
      "type": "function"
    },
    {
      "inputs": [
        {
          "internalType": "uint256",
          "name": "vehicle_id",
          "type": "uint256"
        }
      ],
      "name": "getLatestCarDiagnostic",
      "outputs": [
        {
          "components": [
            {
              "internalType": "uint256",
              "name": "vehicle_id",
              "type": "uint256"
            },
            {
              "internalType": "uint256",
              "name": "driver_id",
              "type": "uint256"
            },
            {
              "internalType": "string",
              "name": "diagnostic",
              "type": "string"
            },
            {
              "internalType": "uint256",
              "name": "timestamp",
              "type": "uint256"
            },
            {
              "internalType": "bool",
              "name": "initialized",
              "type": "bool"
            }
          ],
          "internalType": "struct Vehicles.Diagnostic",
          "name": "",
          "type": "tuple"
        }
      ],
      "stateMutability": "view",
      "type": "function"
    },
    {
      "inputs": [
        {
          "internalType": "uint256",
          "name": "vehicle_id",
          "type": "uint256"
        }
      ],
      "name": "getLatestCarTelemetry",
      "outputs": [
        {
          "components": [
            {
              "internalType": "uint256",
              "name": "vehicle_id",
              "type": "uint256"
            },
            {
              "internalType": "uint256",
              "name": "driver_id",
              "type": "uint256"
            },
            {
              "internalType": "uint256",
              "name": "timestamp",
              "type": "uint256"
            },
            {
              "internalType": "uint256",
              "name": "avg_engine_load",
              "type": "uint256"
            },
            {
              "internalType": "uint256",
              "name": "avg_engine_rpm",
              "type": "uint256"
            },
            {
              "internalType": "int256",
              "name": "coolant_temp",
              "type": "int256"
            },
            {
              "internalType": "uint256",
              "name": "sys_voltage",
              "type": "uint256"
            },
            {
              "internalType": "uint256",
              "name": "fuel_rate",
              "type": "uint256"
            },
            {
              "internalType": "int256",
              "name": "ambient_temp",
              "type": "int256"
            },
            {
              "internalType": "uint256",
              "name": "mileage",
              "type": "uint256"
            },
            {
              "internalType": "bool",
              "name": "initialized",
              "type": "bool"
            }
          ],
          "internalType": "struct Vehicles.Telemetry",
          "name": "",
          "type": "tuple"
        }
      ],
      "stateMutability": "view",
      "type": "function"
    },
    {
      "inputs": [],
      "name": "getLatestFleetTelemetry",
      "outputs": [
        {
          "components": [
            {
              "internalType": "uint256",
              "name": "vehicle_id",
              "type": "uint256"
            },
            {
              "internalType": "uint256",
              "name": "driver_id",
              "type": "uint256"
            },
            {
              "internalType": "uint256",
              "name": "timestamp",
              "type": "uint256"
            },
            {
              "internalType": "uint256",
              "name": "avg_engine_load",
              "type": "uint256"
            },
            {
              "internalType": "uint256",
              "name": "avg_engine_rpm",
              "type": "uint256"
            },
            {
              "internalType": "int256",
              "name": "coolant_temp",
              "type": "int256"
            },
            {
              "internalType": "uint256",
              "name": "sys_voltage",
              "type": "uint256"
            },
            {
              "internalType": "uint256",
              "name": "fuel_rate",
              "type": "uint256"
            },
            {
              "internalType": "int256",
              "name": "ambient_temp",
              "type": "int256"
            },
            {
              "internalType": "uint256",
              "name": "mileage",
              "type": "uint256"
            },
            {
              "internalType": "bool",
              "name": "initialized",
              "type": "bool"
            }
          ],
          "internalType": "struct Vehicles.Telemetry[]",
          "name": "",
          "type": "tuple[]"
        }
      ],
      "stateMutability": "view",
      "type": "function"
    },
    {
      "inputs": [
        {
          "internalType": "uint256",
          "name": "vehicle_id",
          "type": "uint256"
        },
        {
          "internalType": "uint256",
          "name": "driver_id",
          "type": "uint256"
        },
        {
          "internalType": "string",
          "name": "diagnostic",
          "type": "string"
        },
        {
          "internalType": "uint256",
          "name": "timestamp",
          "type": "uint256"
        }
      ],
      "name": "recordDiagnostic",
      "outputs": [],
      "stateMutability": "nonpayable",
      "type": "function"
    },
    {
      "inputs": [
        {
          "internalType": "uint256",
          "name": "vehicle_id",
          "type": "uint256"
        },
        {
          "internalType": "uint256",
          "name": "driver_id",
          "type": "uint256"
        },
        {
          "internalType": "uint256",
          "name": "timestamp",
          "type": "uint256"
        },
        {
          "internalType": "uint256",
          "name": "avg_engine_load",
          "type": "uint256"
        },
        {
          "internalType": "uint256",
          "name": "avg_engine_rpm",
          "type": "uint256"
        },
        {
          "internalType": "int256",
          "name": "coolant_temp",
          "type": "int256"
        },
        {
          "internalType": "uint256",
          "name": "sys_voltage",
          "type": "uint256"
        },
        {
          "internalType": "uint256",
          "name": "fuel_rate",
          "type": "uint256"
        },
        {
          "internalType": "int256",
          "name": "ambient_temp",
          "type": "int256"
        },
        {
          "internalType": "uint256",
          "name": "mileage",
          "type": "uint256"
        }
      ],
      "name": "recordTelemetry",
      "outputs": [],
      "stateMutability": "nonpayable",
      "type": "function"
    },
    {
      "inputs": [
        {
          "internalType": "uint256",
          "name": "vehicle_id",
          "type": "uint256"
        }
      ],
      "name": "getLatestCarStatus",
      "outputs": [
        {
          "components": [
            {
              "internalType": "uint256",
              "name": "vehicle_id",
              "type": "uint256"
            },
            {
              "internalType": "uint256",
              "name": "driver_id",
              "type": "uint256"
            },
            {
              "internalType": "uint256",
              "name": "timestamp",
              "type": "uint256"
            },
            {
              "internalType": "uint256",
              "name": "avg_engine_load",
              "type": "uint256"
            },
            {
              "internalType": "uint256",
              "name": "avg_engine_rpm",
              "type": "uint256"
            },
            {
              "internalType": "int256",
              "name": "coolant_temp",
              "type": "int256"
            },
            {
              "internalType": "uint256",
              "name": "sys_voltage",
              "type": "uint256"
            },
            {
              "internalType": "uint256",
              "name": "fuel_rate",
              "type": "uint256"
            },
            {
              "internalType": "int256",
              "name": "ambient_temp",
              "type": "int256"
            },
            {
              "internalType": "uint256",
              "name": "mileage",
              "type": "uint256"
            },
            {
              "internalType": "bool",
              "name": "initialized",
              "type": "bool"
            }
          ],
          "internalType": "struct Vehicles.Telemetry",
          "name": "",
          "type": "tuple"
        }
      ],
      "stateMutability": "view",
      "type": "function"
    }
  ],
  "bytecode": "0x60806040523480156200001157600080fd5b506040516200187a3803806200187a8339818101604052810190620000379190620000e9565b80600560006101000a81548173ffffffffffffffffffffffffffffffffffffffff021916908373ffffffffffffffffffffffffffffffffffffffff160217905550506200011b565b600080fd5b600073ffffffffffffffffffffffffffffffffffffffff82169050919050565b6000620000b18262000084565b9050919050565b620000c381620000a4565b8114620000cf57600080fd5b50565b600081519050620000e381620000b8565b92915050565b6000602082840312156200010257620001016200007f565b5b60006200011284828501620000d2565b91505092915050565b61174f806200012b6000396000f3fe608060405234801561001057600080fd5b506004361061007d5760003560e01c806370419cc81161005b57806370419cc8146100ec5780639d2e19011461010a578063c1c917d81461013a578063eb3c5a1f1461016a5761007d565b8063033086df146100825780632b2d6ecc146100b25780635b6f114f146100d0575b600080fd5b61009c60048036038101906100979190610b69565b610186565b6040516100a99190610cba565b60405180910390f35b6100ba610284565b6040516100c79190610e67565b60405180910390f35b6100ea60048036038101906100e59190610eb5565b610397565b005b6100f4610588565b6040516101019190611165565b60405180910390f35b610124600480360381019061011f9190610b69565b6106b2565b60405161013191906111fd565b60405180910390f35b610154600480360381019061014f9190610b69565b6107aa565b6040516101619190610cba565b60405180910390f35b610184600480360381019061017f9190611354565b610857565b005b61018e6109ef565b6000600560009054906101000a900473ffffffffffffffffffffffffffffffffffffffff1673ffffffffffffffffffffffffffffffffffffffff1663c1c917d8846040518263ffffffff1660e01b81526004016101eb91906113e6565b61016060405180830381865afa158015610209573d6000803e3d6000fd5b505050506040513d601f19601f8201168201806040525081019061022d9190611568565b90506000151581610140015115150361027b576040517f08c379a0000000000000000000000000000000000000000000000000000000008152600401610272906115f3565b60405180910390fd5b80915050919050565b60608060005b60008054905081101561038f5760008082815481106102ac576102ab611613565b5b906000526020600020015490506000600260008381526020019081526020016000206040518061016001604052908160008201548152602001600182015481526020016002820154815260200160038201548152602001600482015481526020016005820154815260200160068201548152602001600782015481526020016008820154815260200160098201548152602001600a820160009054906101000a900460ff16151515158152505090508084848151811061036f5761036e611613565b5b60200260200101819052505050808061038790611671565b91505061028a565b508091505090565b60006040518061016001604052808c81526020018b81526020018a815260200189815260200188815260200187815260200186815260200185815260200184815260200183815260200160011515815250905060018190806001815401808255809150506001900390600052602060002090600b0201600090919091909150600082015181600001556020820151816001015560408201518160020155606082015181600301556080820151816004015560a0820151816005015560c0820151816006015560e082015181600701556101008201518160080155610120820151816009015561014082015181600a0160006101000a81548160ff021916908315150217905550505080600260008d8152602001908152602001600020600082015181600001556020820151816001015560408201518160020155606082015181600301556080820151816004015560a0820151816005015560c0820151816006015560e082015181600701556101008201518160080155610120820151816009015561014082015181600a0160006101000a81548160ff0219169083151502179055509050506000151561054a8c610987565b15150361057b5760008b90806001815401808255809150506001900390600052602060002001600090919091909150555b5050505050505050505050565b60606003805480602002602001604051908101604052809291908181526020016000905b828210156106a957838290600052602060002090600502016040518060a001604052908160008201548152602001600182015481526020016002820180546105f3906116e8565b80601f016020809104026020016040519081016040528092919081815260200182805461061f906116e8565b801561066c5780601f106106415761010080835404028352916020019161066c565b820191906000526020600020905b81548152906001019060200180831161064f57829003601f168201915b50505050508152602001600382015481526020016004820160009054906101000a900460ff161515151581525050815260200190600101906105ac565b50505050905090565b6106ba610a4b565b600460008381526020019081526020016000206040518060a001604052908160008201548152602001600182015481526020016002820180546106fc906116e8565b80601f0160208091040260200160405190810160405280929190818152602001828054610728906116e8565b80156107755780601f1061074a57610100808354040283529160200191610775565b820191906000526020600020905b81548152906001019060200180831161075857829003601f168201915b50505050508152602001600382015481526020016004820160009054906101000a900460ff1615151515815250509050919050565b6107b26109ef565b600260008381526020019081526020016000206040518061016001604052908160008201548152602001600182015481526020016002820154815260200160038201548152602001600482015481526020016005820154815260200160068201548152602001600782015481526020016008820154815260200160098201548152602001600a820160009054906101000a900460ff1615151515815250509050919050565b60006040518060a001604052808681526020018581526020018481526020018381526020016001151581525090506003819080600181540180825580915050600190039060005260206000209060050201600090919091909150600082015181600001556020820151816001015560408201518160020190805190602001906108e1929190610a7c565b506060820151816003015560808201518160040160006101000a81548160ff0219169083151502179055505050806004600087815260200190815260200160002060008201518160000155602082015181600101556040820151816002019080519060200190610952929190610a7c565b506060820151816003015560808201518160040160006101000a81548160ff0219169083151502179055509050505050505050565b600080600090505b6000805490508110156109e45760008082815481106109b1576109b0611613565b5b906000526020600020015490508381036109d0576001925050506109ea565b5080806109dc90611671565b91505061098f565b50600090505b919050565b604051806101600160405280600081526020016000815260200160008152602001600081526020016000815260200160008152602001600081526020016000815260200160008152602001600081526020016000151581525090565b6040518060a00160405280600081526020016000815260200160608152602001600081526020016000151581525090565b828054610a88906116e8565b90600052602060002090601f016020900481019282610aaa5760008555610af1565b82601f10610ac357805160ff1916838001178555610af1565b82800160010185558215610af1579182015b82811115610af0578251825591602001919060010190610ad5565b5b509050610afe9190610b02565b5090565b5b80821115610b1b576000816000905550600101610b03565b5090565b6000604051905090565b600080fd5b600080fd5b6000819050919050565b610b4681610b33565b8114610b5157600080fd5b50565b600081359050610b6381610b3d565b92915050565b600060208284031215610b7f57610b7e610b29565b5b6000610b8d84828501610b54565b91505092915050565b610b9f81610b33565b82525050565b6000819050919050565b610bb881610ba5565b82525050565b60008115159050919050565b610bd381610bbe565b82525050565b61016082016000820151610bf06000850182610b96565b506020820151610c036020850182610b96565b506040820151610c166040850182610b96565b506060820151610c296060850182610b96565b506080820151610c3c6080850182610b96565b5060a0820151610c4f60a0850182610baf565b5060c0820151610c6260c0850182610b96565b5060e0820151610c7560e0850182610b96565b50610100820151610c8a610100850182610baf565b50610120820151610c9f610120850182610b96565b50610140820151610cb4610140850182610bca565b50505050565b600061016082019050610cd06000830184610bd9565b92915050565b600081519050919050565b600082825260208201905092915050565b6000819050602082019050919050565b61016082016000820151610d196000850182610b96565b506020820151610d2c6020850182610b96565b506040820151610d3f6040850182610b96565b506060820151610d526060850182610b96565b506080820151610d656080850182610b96565b5060a0820151610d7860a0850182610baf565b5060c0820151610d8b60c0850182610b96565b5060e0820151610d9e60e0850182610b96565b50610100820151610db3610100850182610baf565b50610120820151610dc8610120850182610b96565b50610140820151610ddd610140850182610bca565b50505050565b6000610def8383610d02565b6101608301905092915050565b6000602082019050919050565b6000610e1482610cd6565b610e1e8185610ce1565b9350610e2983610cf2565b8060005b83811015610e5a578151610e418882610de3565b9750610e4c83610dfc565b925050600181019050610e2d565b5085935050505092915050565b60006020820190508181036000830152610e818184610e09565b905092915050565b610e9281610ba5565b8114610e9d57600080fd5b50565b600081359050610eaf81610e89565b92915050565b6000806000806000806000806000806101408b8d031215610ed957610ed8610b29565b5b6000610ee78d828e01610b54565b9a50506020610ef88d828e01610b54565b9950506040610f098d828e01610b54565b9850506060610f1a8d828e01610b54565b9750506080610f2b8d828e01610b54565b96505060a0610f3c8d828e01610ea0565b95505060c0610f4d8d828e01610b54565b94505060e0610f5e8d828e01610b54565b935050610100610f708d828e01610ea0565b925050610120610f828d828e01610b54565b9150509295989b9194979a5092959850565b600081519050919050565b600082825260208201905092915050565b6000819050602082019050919050565b600081519050919050565b600082825260208201905092915050565b60005b83811015610ffa578082015181840152602081019050610fdf565b83811115611009576000848401525b50505050565b6000601f19601f8301169050919050565b600061102b82610fc0565b6110358185610fcb565b9350611045818560208601610fdc565b61104e8161100f565b840191505092915050565b600060a0830160008301516110716000860182610b96565b5060208301516110846020860182610b96565b506040830151848203604086015261109c8282611020565b91505060608301516110b16060860182610b96565b5060808301516110c46080860182610bca565b508091505092915050565b60006110db8383611059565b905092915050565b6000602082019050919050565b60006110fb82610f94565b6111058185610f9f565b93508360208202850161111785610fb0565b8060005b85811015611153578484038952815161113485826110cf565b945061113f836110e3565b925060208a0199505060018101905061111b565b50829750879550505050505092915050565b6000602082019050818103600083015261117f81846110f0565b905092915050565b600060a08301600083015161119f6000860182610b96565b5060208301516111b26020860182610b96565b50604083015184820360408601526111ca8282611020565b91505060608301516111df6060860182610b96565b5060808301516111f26080860182610bca565b508091505092915050565b600060208201905081810360008301526112178184611187565b905092915050565b600080fd5b600080fd5b7f4e487b7100000000000000000000000000000000000000000000000000000000600052604160045260246000fd5b6112618261100f565b810181811067ffffffffffffffff821117156112805761127f611229565b5b80604052505050565b6000611293610b1f565b905061129f8282611258565b919050565b600067ffffffffffffffff8211156112bf576112be611229565b5b6112c88261100f565b9050602081019050919050565b82818337600083830152505050565b60006112f76112f2846112a4565b611289565b90508281526020810184848401111561131357611312611224565b5b61131e8482856112d5565b509392505050565b600082601f83011261133b5761133a61121f565b5b813561134b8482602086016112e4565b91505092915050565b6000806000806080858703121561136e5761136d610b29565b5b600061137c87828801610b54565b945050602061138d87828801610b54565b935050604085013567ffffffffffffffff8111156113ae576113ad610b2e565b5b6113ba87828801611326565b92505060606113cb87828801610b54565b91505092959194509250565b6113e081610b33565b82525050565b60006020820190506113fb60008301846113d7565b92915050565b600080fd5b60008151905061141581610b3d565b92915050565b60008151905061142a81610e89565b92915050565b61143981610bbe565b811461144457600080fd5b50565b60008151905061145681611430565b92915050565b6000610160828403121561147357611472611401565b5b61147e610160611289565b9050600061148e84828501611406565b60008301525060206114a284828501611406565b60208301525060406114b684828501611406565b60408301525060606114ca84828501611406565b60608301525060806114de84828501611406565b60808301525060a06114f28482850161141b565b60a08301525060c061150684828501611406565b60c08301525060e061151a84828501611406565b60e08301525061010061152f8482850161141b565b6101008301525061012061154584828501611406565b6101208301525061014061155b84828501611447565b6101408301525092915050565b6000610160828403121561157f5761157e610b29565b5b600061158d8482850161145c565b91505092915050565b600082825260208201905092915050565b7f56656963756c6f206e616f207265676973747261646f00000000000000000000600082015250565b60006115dd601683611596565b91506115e8826115a7565b602082019050919050565b6000602082019050818103600083015261160c816115d0565b9050919050565b7f4e487b7100000000000000000000000000000000000000000000000000000000600052603260045260246000fd5b7f4e487b7100000000000000000000000000000000000000000000000000000000600052601160045260246000fd5b600061167c82610b33565b91507fffffffffffffffffffffffffffffffffffffffffffffffffffffffffffffffff82036116ae576116ad611642565b5b600182019050919050565b7f4e487b7100000000000000000000000000000000000000000000000000000000600052602260045260246000fd5b6000600282049050600182168061170057607f821691505b602082108103611713576117126116b9565b5b5091905056fea2646970667358221220599fb8458aca5291cc613b7d7c383b13ad6cee1842ca67aa9a2d37bed00a4dd764736f6c634300080d0033",
  "immutableReferences": {},
  "source": "// SPDX-License-Identifier: GPL-3.0\r\n\r\npragma solidity >=0.8.2 <0.9.0;\r\n\r\nimport \"./Vehicles.sol\";\r\n\r\ncontract Insurance is Vehicles {\r\n    Vehicles vehiclesContract;\r\n\r\n    constructor(address vehiclesAddress) {\r\n        vehiclesContract = Vehicles(vehiclesAddress);\r\n    }\r\n\r\n    function getLatestCarStatus(uint vehicle_id) public view returns (Telemetry memory) {\r\n        Telemetry memory latest = vehiclesContract.getLatestCarTelemetry(vehicle_id);\r\n        if (latest.initialized == false) {\r\n            revert(\"Veiculo nao registrado\");\r\n        } else {\r\n            return latest;\r\n        }\r\n    }\r\n}",
  "sourcePath": "/home/testekeys/blockchain/ganache-project/contracts/Insurance.sol",
  "compiler": {
    "name": "solc",
    "version": "0.8.13+commit.abaa5c0e.Emscripten.clang"
  },
  "schemaVersion": "3.4.16",
  "updatedAt": "2024-12-03T19:23:02.467Z",
  "devdoc": {
    "kind": "dev",
    "methods": {},
    "version": 1
  },
  "userdoc": {
    "kind": "user",
    "methods": {},
    "version": 1
  }
}