{
  "contractName": "Repair",
  "abi": [
    {
      "inputs": [
        {
          "internalType": "uint256",
          "name": "vehicle_id",
          "type": "uint256"
        },
        {
          "internalType": "string",
          "name": "problem",
          "type": "string"
        },
        {
          "internalType": "string",
          "name": "repair_status",
          "type": "string"
        },
        {
          "internalType": "uint256",
          "name": "price",
          "type": "uint256"
        }
      ],
      "name": "recordMaintenance",
      "outputs": [],
      "stateMutability": "nonpayable",
      "type": "function"
    },
    {
      "inputs": [
        {
          "internalType": "uint256",
          "name": "vehicle_id",
          "type": "uint256"
        }
      ],
      "name": "getLatestMaintenance",
      "outputs": [
        {
          "components": [
            {
              "internalType": "uint256",
              "name": "vehicle_id",
              "type": "uint256"
            },
            {
              "internalType": "string",
              "name": "problem",
              "type": "string"
            },
            {
              "internalType": "string",
              "name": "repair_status",
              "type": "string"
            },
            {
              "internalType": "uint256",
              "name": "price",
              "type": "uint256"
            },
            {
              "internalType": "bool",
              "name": "initialized",
              "type": "bool"
            }
          ],
          "internalType": "struct Repair.MaintenanceRecord",
          "name": "",
          "type": "tuple"
        }
      ],
      "stateMutability": "view",
      "type": "function"
    }
  ],
  "bytecode": "0x608060405234801561001057600080fd5b50610913806100206000396000f3fe608060405234801561001057600080fd5b50600436106100365760003560e01c8063497e98f31461003b5780635bf9bd4a1461006b575b600080fd5b61005560048036038101906100509190610565565b610087565b60405161006291906106d2565b60405180910390f35b61008560048036038101906100809190610759565b610271565b005b61008f610451565b600015156001600084815260200190815260200160002060040160009054906101000a900460ff161515036100f9576040517f08c379a00000000000000000000000000000000000000000000000000000000081526004016100f09061085d565b60405180910390fd5b600160008381526020019081526020016000206040518060a001604052908160008201548152602001600182018054610131906108ac565b80601f016020809104026020016040519081016040528092919081815260200182805461015d906108ac565b80156101aa5780601f1061017f576101008083540402835291602001916101aa565b820191906000526020600020905b81548152906001019060200180831161018d57829003601f168201915b505050505081526020016002820180546101c3906108ac565b80601f01602080910402602001604051908101604052809291908181526020018280546101ef906108ac565b801561023c5780601f106102115761010080835404028352916020019161023c565b820191906000526020600020905b81548152906001019060200180831161021f57829003601f168201915b50505050508152602001600382015481526020016004820160009054906101000a900460ff1615151515815250509050919050565b60006040518060a0016040528088815260200187878080601f016020809104026020016040519081016040528093929190818152602001838380828437600081840152601f19601f82011690508083019250505050505050815260200185858080601f016020809104026020016040519081016040528093929190818152602001838380828437600081840152601f19601f8201169050808301925050505050505081526020018381526020016001151581525090506000819080600181540180825580915050600190039060005260206000209060050201600090919091909150600082015181600001556020820151816001019080519060200190610379929190610482565b506040820151816002019080519060200190610396929190610482565b506060820151816003015560808201518160040160006101000a81548160ff021916908315150217905550505080600160008981526020019081526020016000206000820151816000015560208201518160010190805190602001906103fd929190610482565b50604082015181600201908051906020019061041a929190610482565b506060820151816003015560808201518160040160006101000a81548160ff02191690831515021790555090505050505050505050565b6040518060a00160405280600081526020016060815260200160608152602001600081526020016000151581525090565b82805461048e906108ac565b90600052602060002090601f0160209004810192826104b057600085556104f7565b82601f106104c957805160ff19168380011785556104f7565b828001600101855582156104f7579182015b828111156104f65782518255916020019190600101906104db565b5b5090506105049190610508565b5090565b5b80821115610521576000816000905550600101610509565b5090565b600080fd5b600080fd5b6000819050919050565b6105428161052f565b811461054d57600080fd5b50565b60008135905061055f81610539565b92915050565b60006020828403121561057b5761057a610525565b5b600061058984828501610550565b91505092915050565b61059b8161052f565b82525050565b600081519050919050565b600082825260208201905092915050565b60005b838110156105db5780820151818401526020810190506105c0565b838111156105ea576000848401525b50505050565b6000601f19601f8301169050919050565b600061060c826105a1565b61061681856105ac565b93506106268185602086016105bd565b61062f816105f0565b840191505092915050565b60008115159050919050565b61064f8161063a565b82525050565b600060a08301600083015161066d6000860182610592565b50602083015184820360208601526106858282610601565b9150506040830151848203604086015261069f8282610601565b91505060608301516106b46060860182610592565b5060808301516106c76080860182610646565b508091505092915050565b600060208201905081810360008301526106ec8184610655565b905092915050565b600080fd5b600080fd5b600080fd5b60008083601f840112610719576107186106f4565b5b8235905067ffffffffffffffff811115610736576107356106f9565b5b602083019150836001820283011115610752576107516106fe565b5b9250929050565b6000806000806000806080878903121561077657610775610525565b5b600061078489828a01610550565b965050602087013567ffffffffffffffff8111156107a5576107a461052a565b5b6107b189828a01610703565b9550955050604087013567ffffffffffffffff8111156107d4576107d361052a565b5b6107e089828a01610703565b935093505060606107f389828a01610550565b9150509295509295509295565b600082825260208201905092915050565b7f56656963756c6f206e616f207265676973747261646f00000000000000000000600082015250565b6000610847601683610800565b915061085282610811565b602082019050919050565b600060208201905081810360008301526108768161083a565b9050919050565b7f4e487b7100000000000000000000000000000000000000000000000000000000600052602260045260246000fd5b600060028204905060018216806108c457607f821691505b6020821081036108d7576108d661087d565b5b5091905056fea26469706673582212204ee4fdc5f88943b56e0823f192df49ea151f81c5f518c1d561b95422d32737b064736f6c634300080d0033",
  "immutableReferences": {},
  "source": "// SPDX-License-Identifier: GPL-3.0\r\n\r\npragma solidity >=0.8.2 <0.9.0;\r\n\r\ncontract Repair {\r\n    struct MaintenanceRecord {\r\n        uint vehicle_id;\r\n        string problem;\r\n        string repair_status;\r\n        uint price;\r\n        bool initialized;\r\n    }\r\n\r\n    MaintenanceRecord[] allMaintenances;\r\n    mapping(uint => MaintenanceRecord) private latestMaintenance;\r\n\r\n    function recordMaintenance(uint vehicle_id, string calldata problem, string calldata repair_status, uint price) public {\r\n        MaintenanceRecord memory new_maintenance = MaintenanceRecord(vehicle_id, problem, repair_status, price, true);\r\n        allMaintenances.push(new_maintenance);\r\n        latestMaintenance[vehicle_id] = new_maintenance;\r\n    }\r\n\r\n    function getLatestMaintenance(uint vehicle_id) public view returns (MaintenanceRecord memory) {\r\n        if (latestMaintenance[vehicle_id].initialized == false) {\r\n            revert(\"Veiculo nao registrado\");\r\n        } else {\r\n            return latestMaintenance[vehicle_id];\r\n        }\r\n    }\r\n}",
  "sourcePath": "/home/testekeys/blockchain/ganache-project/contracts/Repair.sol",
  "compiler": {
    "name": "solc",
    "version": "0.8.13+commit.abaa5c0e.Emscripten.clang"
  },
  "schemaVersion": "3.4.16",
  "updatedAt": "2024-12-03T19:23:02.470Z",
  "devdoc": {
    "kind": "dev",
    "methods": {},
    "version": 1
  },
  "userdoc": {
    "kind": "user",
    "methods": {},
    "version": 1
  }
}