{
  "contractName": "Vehicles",
  "abi": [
    {
      "inputs": [
        {
          "internalType": "uint256",
          "name": "vehicle_id",
          "type": "uint256"
        },
        {
          "internalType": "uint256",
          "name": "driver_id",
          "type": "uint256"
        },
        {
          "internalType": "uint256",
          "name": "timestamp",
          "type": "uint256"
        },
        {
          "internalType": "uint256",
          "name": "avg_engine_load",
          "type": "uint256"
        },
        {
          "internalType": "uint256",
          "name": "avg_engine_rpm",
          "type": "uint256"
        },
        {
          "internalType": "int256",
          "name": "coolant_temp",
          "type": "int256"
        },
        {
          "internalType": "uint256",
          "name": "sys_voltage",
          "type": "uint256"
        },
        {
          "internalType": "uint256",
          "name": "fuel_rate",
          "type": "uint256"
        },
        {
          "internalType": "int256",
          "name": "ambient_temp",
          "type": "int256"
        },
        {
          "internalType": "uint256",
          "name": "mileage",
          "type": "uint256"
        }
      ],
      "name": "recordTelemetry",
      "outputs": [],
      "stateMutability": "nonpayable",
      "type": "function"
    },
    {
      "inputs": [
        {
          "internalType": "uint256",
          "name": "vehicle_id",
          "type": "uint256"
        },
        {
          "internalType": "uint256",
          "name": "driver_id",
          "type": "uint256"
        },
        {
          "internalType": "string",
          "name": "diagnostic",
          "type": "string"
        },
        {
          "internalType": "uint256",
          "name": "timestamp",
          "type": "uint256"
        }
      ],
      "name": "recordDiagnostic",
      "outputs": [],
      "stateMutability": "nonpayable",
      "type": "function"
    },
    {
      "inputs": [
        {
          "internalType": "uint256",
          "name": "vehicle_id",
          "type": "uint256"
        }
      ],
      "name": "getLatestCarTelemetry",
      "outputs": [
        {
          "components": [
            {
              "internalType": "uint256",
              "name": "vehicle_id",
              "type": "uint256"
            },
            {
              "internalType": "uint256",
              "name": "driver_id",
              "type": "uint256"
            },
            {
              "internalType": "uint256",
              "name": "timestamp",
              "type": "uint256"
            },
            {
              "internalType": "uint256",
              "name": "avg_engine_load",
              "type": "uint256"
            },
            {
              "internalType": "uint256",
              "name": "avg_engine_rpm",
              "type": "uint256"
            },
            {
              "internalType": "int256",
              "name": "coolant_temp",
              "type": "int256"
            },
            {
              "internalType": "uint256",
              "name": "sys_voltage",
              "type": "uint256"
            },
            {
              "internalType": "uint256",
              "name": "fuel_rate",
              "type": "uint256"
            },
            {
              "internalType": "int256",
              "name": "ambient_temp",
              "type": "int256"
            },
            {
              "internalType": "uint256",
              "name": "mileage",
              "type": "uint256"
            },
            {
              "internalType": "bool",
              "name": "initialized",
              "type": "bool"
            }
          ],
          "internalType": "struct Vehicles.Telemetry",
          "name": "",
          "type": "tuple"
        }
      ],
      "stateMutability": "view",
      "type": "function",
      "constant": true
    },
    {
      "inputs": [
        {
          "internalType": "uint256",
          "name": "vehicle_id",
          "type": "uint256"
        }
      ],
      "name": "getLatestCarDiagnostic",
      "outputs": [
        {
          "components": [
            {
              "internalType": "uint256",
              "name": "vehicle_id",
              "type": "uint256"
            },
            {
              "internalType": "uint256",
              "name": "driver_id",
              "type": "uint256"
            },
            {
              "internalType": "string",
              "name": "diagnostic",
              "type": "string"
            },
            {
              "internalType": "uint256",
              "name": "timestamp",
              "type": "uint256"
            },
            {
              "internalType": "bool",
              "name": "initialized",
              "type": "bool"
            }
          ],
          "internalType": "struct Vehicles.Diagnostic",
          "name": "",
          "type": "tuple"
        }
      ],
      "stateMutability": "view",
      "type": "function",
      "constant": true
    },
    {
      "inputs": [],
      "name": "getLatestFleetTelemetry",
      "outputs": [
        {
          "components": [
            {
              "internalType": "uint256",
              "name": "vehicle_id",
              "type": "uint256"
            },
            {
              "internalType": "uint256",
              "name": "driver_id",
              "type": "uint256"
            },
            {
              "internalType": "uint256",
              "name": "timestamp",
              "type": "uint256"
            },
            {
              "internalType": "uint256",
              "name": "avg_engine_load",
              "type": "uint256"
            },
            {
              "internalType": "uint256",
              "name": "avg_engine_rpm",
              "type": "uint256"
            },
            {
              "internalType": "int256",
              "name": "coolant_temp",
              "type": "int256"
            },
            {
              "internalType": "uint256",
              "name": "sys_voltage",
              "type": "uint256"
            },
            {
              "internalType": "uint256",
              "name": "fuel_rate",
              "type": "uint256"
            },
            {
              "internalType": "int256",
              "name": "ambient_temp",
              "type": "int256"
            },
            {
              "internalType": "uint256",
              "name": "mileage",
              "type": "uint256"
            },
            {
              "internalType": "bool",
              "name": "initialized",
              "type": "bool"
            }
          ],
          "internalType": "struct Vehicles.Telemetry[]",
          "name": "",
          "type": "tuple[]"
        }
      ],
      "stateMutability": "view",
      "type": "function",
      "constant": true
    },
    {
      "inputs": [],
      "name": "getAllDiagnostics",
      "outputs": [
        {
          "components": [
            {
              "internalType": "uint256",
              "name": "vehicle_id",
              "type": "uint256"
            },
            {
              "internalType": "uint256",
              "name": "driver_id",
              "type": "uint256"
            },
            {
              "internalType": "string",
              "name": "diagnostic",
              "type": "string"
            },
            {
              "internalType": "uint256",
              "name": "timestamp",
              "type": "uint256"
            },
            {
              "internalType": "bool",
              "name": "initialized",
              "type": "bool"
            }
          ],
          "internalType": "struct Vehicles.Diagnostic[]",
          "name": "",
          "type": "tuple[]"
        }
      ],
      "stateMutability": "view",
      "type": "function",
      "constant": true
    }
  ],
  "bytecode": "0x608060405234801561001057600080fd5b506113ca806100206000396000f3fe608060405234801561001057600080fd5b50600436106100625760003560e01c80632b2d6ecc146100675780635b6f114f1461008557806370419cc8146100a15780639d2e1901146100bf578063c1c917d8146100ef578063eb3c5a1f1461011f575b600080fd5b61006f61013b565b60405161007c9190610bb4565b60405180910390f35b61009f600480360381019061009a9190610c42565b61024e565b005b6100a961043f565b6040516100b69190610ef2565b60405180910390f35b6100d960048036038101906100d49190610f14565b610569565b6040516100e69190610fb7565b60405180910390f35b61010960048036038101906101049190610f14565b610661565b60405161011691906110ba565b60405180910390f35b6101396004803603810190610134919061120b565b61070e565b005b60608060005b6000805490508110156102465760008082815481106101635761016261128e565b5b906000526020600020015490506000600260008381526020019081526020016000206040518061016001604052908160008201548152602001600182015481526020016002820154815260200160038201548152602001600482015481526020016005820154815260200160068201548152602001600782015481526020016008820154815260200160098201548152602001600a820160009054906101000a900460ff1615151515815250509050808484815181106102265761022561128e565b5b60200260200101819052505050808061023e906112ec565b915050610141565b508091505090565b60006040518061016001604052808c81526020018b81526020018a815260200189815260200188815260200187815260200186815260200185815260200184815260200183815260200160011515815250905060018190806001815401808255809150506001900390600052602060002090600b0201600090919091909150600082015181600001556020820151816001015560408201518160020155606082015181600301556080820151816004015560a0820151816005015560c0820151816006015560e082015181600701556101008201518160080155610120820151816009015561014082015181600a0160006101000a81548160ff021916908315150217905550505080600260008d8152602001908152602001600020600082015181600001556020820151816001015560408201518160020155606082015181600301556080820151816004015560a0820151816005015560c0820151816006015560e082015181600701556101008201518160080155610120820151816009015561014082015181600a0160006101000a81548160ff021916908315150217905550905050600015156104018c61083e565b1515036104325760008b90806001815401808255809150506001900390600052602060002001600090919091909150555b5050505050505050505050565b60606003805480602002602001604051908101604052809291908181526020016000905b8282101561056057838290600052602060002090600502016040518060a001604052908160008201548152602001600182015481526020016002820180546104aa90611363565b80601f01602080910402602001604051908101604052809291908181526020018280546104d690611363565b80156105235780601f106104f857610100808354040283529160200191610523565b820191906000526020600020905b81548152906001019060200180831161050657829003601f168201915b50505050508152602001600382015481526020016004820160009054906101000a900460ff16151515158152505081526020019060010190610463565b50505050905090565b6105716108a6565b600460008381526020019081526020016000206040518060a001604052908160008201548152602001600182015481526020016002820180546105b390611363565b80601f01602080910402602001604051908101604052809291908181526020018280546105df90611363565b801561062c5780601f106106015761010080835404028352916020019161062c565b820191906000526020600020905b81548152906001019060200180831161060f57829003601f168201915b50505050508152602001600382015481526020016004820160009054906101000a900460ff1615151515815250509050919050565b6106696108d7565b600260008381526020019081526020016000206040518061016001604052908160008201548152602001600182015481526020016002820154815260200160038201548152602001600482015481526020016005820154815260200160068201548152602001600782015481526020016008820154815260200160098201548152602001600a820160009054906101000a900460ff1615151515815250509050919050565b60006040518060a00160405280868152602001858152602001848152602001838152602001600115158152509050600381908060018154018082558091505060019003906000526020600020906005020160009091909190915060008201518160000155602082015181600101556040820151816002019080519060200190610798929190610933565b506060820151816003015560808201518160040160006101000a81548160ff0219169083151502179055505050806004600087815260200190815260200160002060008201518160000155602082015181600101556040820151816002019080519060200190610809929190610933565b506060820151816003015560808201518160040160006101000a81548160ff0219169083151502179055509050505050505050565b600080600090505b60008054905081101561089b5760008082815481106108685761086761128e565b5b90600052602060002001549050838103610887576001925050506108a1565b508080610893906112ec565b915050610846565b50600090505b919050565b6040518060a00160405280600081526020016000815260200160608152602001600081526020016000151581525090565b604051806101600160405280600081526020016000815260200160008152602001600081526020016000815260200160008152602001600081526020016000815260200160008152602001600081526020016000151581525090565b82805461093f90611363565b90600052602060002090601f01602090048101928261096157600085556109a8565b82601f1061097a57805160ff19168380011785556109a8565b828001600101855582156109a8579182015b828111156109a757825182559160200191906001019061098c565b5b5090506109b591906109b9565b5090565b5b808211156109d25760008160009055506001016109ba565b5090565b600081519050919050565b600082825260208201905092915050565b6000819050602082019050919050565b6000819050919050565b610a1581610a02565b82525050565b6000819050919050565b610a2e81610a1b565b82525050565b60008115159050919050565b610a4981610a34565b82525050565b61016082016000820151610a666000850182610a0c565b506020820151610a796020850182610a0c565b506040820151610a8c6040850182610a0c565b506060820151610a9f6060850182610a0c565b506080820151610ab26080850182610a0c565b5060a0820151610ac560a0850182610a25565b5060c0820151610ad860c0850182610a0c565b5060e0820151610aeb60e0850182610a0c565b50610100820151610b00610100850182610a25565b50610120820151610b15610120850182610a0c565b50610140820151610b2a610140850182610a40565b50505050565b6000610b3c8383610a4f565b6101608301905092915050565b6000602082019050919050565b6000610b61826109d6565b610b6b81856109e1565b9350610b76836109f2565b8060005b83811015610ba7578151610b8e8882610b30565b9750610b9983610b49565b925050600181019050610b7a565b5085935050505092915050565b60006020820190508181036000830152610bce8184610b56565b905092915050565b6000604051905090565b600080fd5b600080fd5b610bf381610a02565b8114610bfe57600080fd5b50565b600081359050610c1081610bea565b92915050565b610c1f81610a1b565b8114610c2a57600080fd5b50565b600081359050610c3c81610c16565b92915050565b6000806000806000806000806000806101408b8d031215610c6657610c65610be0565b5b6000610c748d828e01610c01565b9a50506020610c858d828e01610c01565b9950506040610c968d828e01610c01565b9850506060610ca78d828e01610c01565b9750506080610cb88d828e01610c01565b96505060a0610cc98d828e01610c2d565b95505060c0610cda8d828e01610c01565b94505060e0610ceb8d828e01610c01565b935050610100610cfd8d828e01610c2d565b925050610120610d0f8d828e01610c01565b9150509295989b9194979a5092959850565b600081519050919050565b600082825260208201905092915050565b6000819050602082019050919050565b600081519050919050565b600082825260208201905092915050565b60005b83811015610d87578082015181840152602081019050610d6c565b83811115610d96576000848401525b50505050565b6000601f19601f8301169050919050565b6000610db882610d4d565b610dc28185610d58565b9350610dd2818560208601610d69565b610ddb81610d9c565b840191505092915050565b600060a083016000830151610dfe6000860182610a0c565b506020830151610e116020860182610a0c565b5060408301518482036040860152610e298282610dad565b9150506060830151610e3e6060860182610a0c565b506080830151610e516080860182610a40565b508091505092915050565b6000610e688383610de6565b905092915050565b6000602082019050919050565b6000610e8882610d21565b610e928185610d2c565b935083602082028501610ea485610d3d565b8060005b85811015610ee05784840389528151610ec18582610e5c565b9450610ecc83610e70565b925060208a01995050600181019050610ea8565b50829750879550505050505092915050565b60006020820190508181036000830152610f0c8184610e7d565b905092915050565b600060208284031215610f2a57610f29610be0565b5b6000610f3884828501610c01565b91505092915050565b600060a083016000830151610f596000860182610a0c565b506020830151610f6c6020860182610a0c565b5060408301518482036040860152610f848282610dad565b9150506060830151610f996060860182610a0c565b506080830151610fac6080860182610a40565b508091505092915050565b60006020820190508181036000830152610fd18184610f41565b905092915050565b61016082016000820151610ff06000850182610a0c565b5060208201516110036020850182610a0c565b5060408201516110166040850182610a0c565b5060608201516110296060850182610a0c565b50608082015161103c6080850182610a0c565b5060a082015161104f60a0850182610a25565b5060c082015161106260c0850182610a0c565b5060e082015161107560e0850182610a0c565b5061010082015161108a610100850182610a25565b5061012082015161109f610120850182610a0c565b506101408201516110b4610140850182610a40565b50505050565b6000610160820190506110d06000830184610fd9565b92915050565b600080fd5b600080fd5b7f4e487b7100000000000000000000000000000000000000000000000000000000600052604160045260246000fd5b61111882610d9c565b810181811067ffffffffffffffff82111715611137576111366110e0565b5b80604052505050565b600061114a610bd6565b9050611156828261110f565b919050565b600067ffffffffffffffff821115611176576111756110e0565b5b61117f82610d9c565b9050602081019050919050565b82818337600083830152505050565b60006111ae6111a98461115b565b611140565b9050828152602081018484840111156111ca576111c96110db565b5b6111d584828561118c565b509392505050565b600082601f8301126111f2576111f16110d6565b5b813561120284826020860161119b565b91505092915050565b6000806000806080858703121561122557611224610be0565b5b600061123387828801610c01565b945050602061124487828801610c01565b935050604085013567ffffffffffffffff81111561126557611264610be5565b5b611271878288016111dd565b925050606061128287828801610c01565b91505092959194509250565b7f4e487b7100000000000000000000000000000000000000000000000000000000600052603260045260246000fd5b7f4e487b7100000000000000000000000000000000000000000000000000000000600052601160045260246000fd5b60006112f782610a02565b91507fffffffffffffffffffffffffffffffffffffffffffffffffffffffffffffffff8203611329576113286112bd565b5b600182019050919050565b7f4e487b7100000000000000000000000000000000000000000000000000000000600052602260045260246000fd5b6000600282049050600182168061137b57607f821691505b60208210810361138e5761138d611334565b5b5091905056fea26469706673582212200e47b7cc5e7f9c22da9730ec29de735128d3b14dfc5f22f8a59e106177b1aba064736f6c634300080d0033",
  "immutableReferences": {},
  "source": "// SPDX-License-Identifier: GPL-3.0\r\n\r\npragma solidity >=0.8.2 <0.9.0;\r\n\r\ncontract Vehicles {\r\n    struct Telemetry {\r\n        uint vehicle_id;\r\n        uint driver_id;\r\n        uint timestamp;\r\n        uint avg_engine_load;\r\n        uint avg_engine_rpm;\r\n        int coolant_temp;\r\n        uint sys_voltage;\r\n        uint fuel_rate;\r\n        int ambient_temp;\r\n        uint mileage;\r\n        bool initialized;\r\n    }\r\n\r\n    struct Diagnostic {\r\n        uint vehicle_id;\r\n        uint driver_id;\r\n        string diagnostic;\r\n        uint timestamp;\r\n        bool initialized;\r\n    }\r\n\r\n    uint[] all_vehicle_ids;\r\n\r\n    Telemetry[] allTelemetry;\r\n    mapping(uint => Telemetry) private latestTelemetry;\r\n\r\n    Diagnostic[] allDiagnostic;\r\n    mapping(uint => Diagnostic) private latestDiagnostic;\r\n\r\n    function vehicle_in_array(uint vehicle_id) private view returns (bool) {\r\n        for (uint i = 0; i < all_vehicle_ids.length; i++) {\r\n            uint lookup_id = all_vehicle_ids[i];\r\n            if (lookup_id == vehicle_id) {\r\n                return true;\r\n            }\r\n        }\r\n        return false;\r\n    }\r\n\r\n    function recordTelemetry(\r\n                            uint vehicle_id,\r\n                            uint driver_id,\r\n                            uint timestamp,\r\n                            uint avg_engine_load,\r\n                            uint avg_engine_rpm,\r\n                            int coolant_temp,\r\n                            uint sys_voltage,\r\n                            uint fuel_rate,\r\n                            int ambient_temp,\r\n                            uint mileage) public {\r\n            Telemetry memory new_telemetry = Telemetry(\r\n                vehicle_id,\r\n                driver_id, \r\n                timestamp, \r\n                avg_engine_load, \r\n                avg_engine_rpm, \r\n                coolant_temp, \r\n                sys_voltage, \r\n                fuel_rate, \r\n                ambient_temp, \r\n                mileage,\r\n                true);\r\n            allTelemetry.push(new_telemetry);\r\n            latestTelemetry[vehicle_id] = new_telemetry;\r\n            if (vehicle_in_array(vehicle_id) == false) {\r\n                all_vehicle_ids.push(vehicle_id);\r\n            }\r\n\r\n    }\r\n\r\n    function recordDiagnostic (\r\n                                uint vehicle_id,\r\n                                uint driver_id,\r\n                                string memory diagnostic, \r\n                                uint timestamp) public {\r\n        Diagnostic memory new_diagnostic = Diagnostic(vehicle_id, driver_id, diagnostic, timestamp, true);\r\n        allDiagnostic.push(new_diagnostic);\r\n        latestDiagnostic[vehicle_id] = new_diagnostic;\r\n    }\r\n\r\n    function getLatestCarTelemetry(uint vehicle_id) external  view returns (Telemetry memory) {\r\n        return latestTelemetry[vehicle_id];\r\n    }\r\n\r\n    function getLatestCarDiagnostic(uint vehicle_id) external view returns (Diagnostic memory) {\r\n        return latestDiagnostic[vehicle_id];\r\n    }\r\n\r\n    function getLatestFleetTelemetry() external view returns (Telemetry[] memory) {\r\n        Telemetry[] memory all_telemetries;\r\n        for (uint i = 0; i < all_vehicle_ids.length; i++) {\r\n            uint id = all_vehicle_ids[i];\r\n            Telemetry memory t = latestTelemetry[id];\r\n            all_telemetries[i] = t;\r\n        }\r\n        return all_telemetries;\r\n    }\r\n\r\n    function getAllDiagnostics() external view returns (Diagnostic[] memory) {\r\n        return allDiagnostic;\r\n    }\r\n}",
  "sourcePath": "/home/testekeys/blockchain/ganache-project/contracts/Vehicles.sol",
  "compiler": {
    "name": "solc",
    "version": "0.8.13+commit.abaa5c0e.Emscripten.clang"
  },
  "schemaVersion": "3.4.16",
  "updatedAt": "2024-12-03T19:42:11.489Z",
  "networkType": "ethereum",
  "devdoc": {
    "kind": "dev",
    "methods": {},
    "version": 1
  },
  "userdoc": {
    "kind": "user",
    "methods": {},
    "version": 1
  }
}